:2000000038C0000051C000004FC000004DC000004BC0000049C0000047C0000045C000009B
:2000200043C0000041C000003FC000003DC000003BC0000039C0000037C0000035C00000E0
:2000400033C0000031C000002FC000002DC000002BC0000029C0000027C0000025C0000040
:2000600023C0000021C000003F065B4F666D7D077F6F11241FBECFEFD8E0DEBFCDBF11E0E6
:20008000A0E0B1E0EAEAFDE002C005900D92A032B107D9F711E0A0E2B1E001C01D92A03406
:2000A000B107E1F7FAD47FC6ABCF1092B90088E48093B800089594EA9093BC009091BC00BA
:2000C00097FFFCCF9091B900987F983021F0903111F081E008958093BB0084E88093BC002C
:2000E0008091BC0087FFFCCF8091B900887F883111F0803471F780E0089524EA34E844E9E7
:200100002093BC009091BC0097FFFCCF9091B900987F983011F0903199F78093BB00309396
:20012000BC009091BC0097FFFCCF9091B900987F903211F0983539F44093BC009091BC00AB
:2001400094FDFCCFDDCF0895B6CF84E98093BC008091BC0084FDFCCF08958093BB0084E849
:200160008093BC008091BC0087FFFCCF9091B900987F81E0983209F480E0089584EC8093F9
:20018000BC008091BC0087FFFCCF8091BB00089584E88093BC008091BC0087FFFCCF8091B2
:2001A000BB000895982F92959F708F702AE0929F800D112408956AE0EAD5292F30E1839FBD
:2001C000C0011124822B08951F93CF93DF931F92CDB7DEB7182F80ED69838FDF812FBDDF35
:2001E0006981862FBADF0F90DF91CF911F91ADCFEF92FF920F931F93CF93DF9300D0CDB79E
:20020000DEB7082F142F80ED69837A8376DF802FA4DF6981062FE62E7A81F72E8E2D801B49
:20022000811728F4F70181917F0197DFF7CF0F900F90DF91CF911F910F91FF90EF9085CF84
:200240001F93CF93DF93182FEB0180ED56DF812F84DF81ED79DF9CDF8883DF91CF911F9164
:2002600074CFCF92DF92EF92FF921F93CF93DF93D82F6B01C42F80ED40DF8D2F6EDF81ED68
:2002800063DF10E0D0E02197812F90E07601E80EF91E8C179D072CF471DFF70180831F5FF0
:2002A000F3CF76DFF7018083DF91CF911F91FF90EF90DF90CF9049CF60E08FE085CFCF9254
:2002C000DF92EF92FF920F931F93CF93DF9300D01F92CDB7DEB76C017B018A0143E0BE0183
:2002E0006F5F7F4F80E0BDDF89818F775BDFF60180838A818F7756DFF70180838B818F73D3
:2003000051DFF80180830F900F900F90DF91CF911F910F91FF90EF90DF90CF900895BC017E
:2003200083E08ECF682F83E04FCFCF92DF92EF92FF920F931F93CF93DF9300D01F92CDB7D4
:20034000DEB78C016B017A0143E0BE016F5F7F4F84E087DF898126DFF80180831A81812FF6
:200360008F7120DFF60180838B811CDF17FD02C090E001C094E6890FF70180830F900F902B
:200380000F90DF91CF911F910F91FF90EF90DF90CF900895CF93DF9300D000D01F92CDB77C
:2003A000DEB74D836C8307DF89836C81862F03DF982F4D81443610F480E001C080E8982B14
:2003C0009A83842F64E6E3D4892FF5DE8B8343E0BE016F5F7F4F84E00BDF0F900F900F900A
:2003E0000F900F90DF91CF910895FF920F931F93CF93DF9300D000D0CDB7DEB78C0144E02F
:20040000BE016F5F7F4F87E02CDFF9802A819B818C81F8012183928383838F2D9F2D991FCA
:200420009927991F90FBF0F8F0828F77BBDE880F9F2D9170F92EF82AF801F0828A81982FD6
:20044000991F9927991FF82E90FBF0F8F1828F77A9DE880F9F2D9170F92EF82AF801F182BA
:200460008B81982F991F9927991FF82E90FBF0F8F2828F7397DE880F9F2D9170F92EF82A48
:20048000F801F2828C81982F991F9927991FF82E90FBF0F886FB992790F990FBF1F8F3829F
:2004A0008F7380DE880F880F9F2D9370F92EF82AF801F3820F900F900F900F90DF91CF91DC
:2004C0001F910F91FF900895CF93DF9300D0CDB7DEB79A83898344E0BE016F5F7F4F87E0D4
:2004E00087DE0F900F90DF91CF9108952091380120932D0183B180958E7180933801ACE100
:20050000B1E0E0E3F1E041E050E08D91822331F08081918101969183808302C05183408367
:20052000329681E0E833F80781F70895E82FF0E0EE0FFF1FE05DFE4F2081318120383105F6
:2005400041F0213084E0380730F081E0222321F002C081E0089580E008958150AAE3B1E0F3
:2005600094E0899FF0011124E050FF4F808113968C931397818112968C93129782811196AC
:200580008C93119783818C930895CF93C0912F01C13009F480C038F0C23009F4AAC0C3304F
:2005A00009F4E5C01CC144E251E063E271E082E291E085DE8091320190913301029780F1F4
:2005C00082E0B4DF882381F0809122018F5F8C3318F48093220102C010922201809122012C
:2005E000EADD682F80E0F0DD83E0A0DF882379F080912201811102C08BE301C081508093DF
:20060000220180912201D7DD682F80E0DDDD8091220190E00DD310923C0110923D01DDC03E
:2006200082E084DF882381F0809123018F5F8C3318F48093230102C01092230180912301F7
:20064000BADD682F81E0C0DD83E070DF882381F0809124018F5F883118F48093240102C0BD
:200660001092240180912401A6DD682F82E0ACDD209124018091230190E034E6239F800D94
:20068000911D1124D5D290912201892F817090FF6BC083E069C085E291E041DE8091340160
:2006A000909135018038910569F4809125018F5F883018F48093250102C0C09325018091CA
:2006C000250130DE80913601909137018038910561F480912501813011F487E001C08150BC
:2006E00080932501809125011DDE8091250135DF74C048E251E066E271E087E291E015DE4F
:2007000082E014DF882379F0809126018F5F8D3008F081E0809326014091280160912601E8
:200720008091270137DE83E001DF882389F0809127018F5F803218F48093270102C0109280
:20074000270140912801609126018091270122DE209127018091260190E034E6239F800D3C
:20076000911D112465D282E080933E0138C048E251E066E271E087E291E0D7DD82E0D6DE1B
:20078000882389F0809128018F5F883C18F48093280102C010922801409128016091260162
:2007A00080912701F7DD83E0C1DE882381F080912801811102C087EC01C08150809328013F
:2007C000409128016091260180912701E3DD8091280190E08053984F2BD210923E01CF916C
:2007E0000895CF9380912E0190E022D280912E01813009F44AC038F0823009F48CC0833088
:2008000009F4CBC042C180913201909133018038910541F480912901982F909590FB80F906
:2008200080932901C0912901C0FF02C065D22BC082E07CDE882361F08C2F86958F5F8F77DB
:200840008C3320F4880F8093290102C01092290183E06CDE882381F080912901282F2E7F5B
:20086000982F9170211103C0892F866703C08E7F8250892B8093290180912901869590E0BD
:20088000D7D110923C018DE643C020913201309133012038310549F490912A01292F217082
:2008A000822780FB90F990932A01C0912A01C0FF02C022D229C082E039DE882361F08C2F33
:2008C00086958F5F8F778C3320F4880F80932A0102C010922A0183E029DE882381F080913B
:2008E0002A01282F2E7F982F9170211103C0892F866703C08E7F8250892B80932A018091C2
:200900002A01869590E094D187E280933C0183E380933D01BAC08091320190913301803881
:20092000910541F480912B01982F909590FB80F980932B01C0912B01C0FF02C0DDD12BC0E9
:2009400082E0F4DD882361F08C2F86958F5F8F77883120F4880F80932B0102C010922B016B
:2009600083E0E4DD882381F080912B01282F2E7F982F9170211103C0892F8E6203C08E7FC1
:200980008250892B80932B0180912B01869590E04FD110923C0184E7BBCF80913201909171
:2009A00033018038910579F480912C01982F937011F4826006C0923011F4816002C08E7F1C
:2009C0008D7F80932C01C0912C01C0FF02C094D12FC082E0C1FD2EC0A9DD882369F08C2F25
:2009E000869586958F5F8F73C370803218F4880F880FC82BC0932C0183E098DD882381F04B
:200A000080912C01282F2C7F982F9370211103C0892F8C6703C08C7F8450892B80932C0196
:200A200080912C018695869590E002D110923C018EE56ECF7BDD882379F08C2F8695869513
:200A40008F5F8F73C370883020F4880F880FC82B01C0C460C0932C0183E068DD882381F05D
:200A600080912C01282F2C7F982F9370243019F4892F8C6103C08C7F8450892B80932C01D0
:200A800080912C018695869568DD8FE599E00197F1F700C00000CF910895CF93DF9300D0CF
:200AA00000D000D0CDB7DEB7ACD0FFDA84B1817E84B985B18E6185B9579880E3898380E88E
:200AC0008A838B838C8344E0BE016F5F7F4F87E08FDB42E0BE016B5F7F4F8EE0C2DB8D810A
:200AE000857E85608D8342E0BE016B5F7F4F8EE07FDBE2DB1092390110922F0110922E0181
:200B000011E04F9913C080912001909121010196893C910528F490932101809320010AC063
:200B20001092210110922001C7DB04C01092210110922001DBDC809130019091310181155F
:200B4000924089F480913901811106C089E291E04CDC1093390107C0813029F41092390151
:200B600089E291E0B1DC909138018091390194FD11C090912D0194FF0DC0209130013091B3
:200B80003101215831092F37314020F4882339F0813071F0882351F08130A9F015C0809183
:200BA0002F018F5F8430E8F480932F01EEDC0CC080912E01811118C09091290190FD1EC04E
:200BC0008F5F80932E010DDE9091390180913E01913011F4846001C08B7F80933E0193D025
:200BE00090CF10922F01E2CF813019F490912A01E5CF823019F490912B01E0CF10922E01C9
:200C0000E2CF8AB18F678AB987B18F6087B9209A089590E06A3030F4E62FF0E0E859FF4F4F
:200C2000E49101C0E0E0DC01A65CBE4FEC9308951F93CF93DF939C01BC0184E0769567956B
:200C40008A95E1F76F70932F9F70A901452F552742954F70FA01E90FF11DE60FF11D8E2FFC
:200C6000880FE80FEE0F2F702E0F7DEC279FF00111243F2F359535953595862FE9E04E9F81
:200C8000800D1124692F660F660F690F680F630F7DEC679FF00111245F2F559555955595CE
:200CA00086EF162F589F100D1124990F950FEAE19E9FB0011124C92F879FC00D1124440F84
:200CC000440F470F9AE1499FB0011124D42F879FD00D1124622F389F600D112480E099DF05
:200CE000612F81E096DF6C2F82E093DF6D2F83E0DF91CF911F918DCFEAE3F1E01082118281
:200D000012821382089580913F018770823079F030F4882351F0813069F440980BC0833036
:200D200041F0843039F4439805C0289803C0419801C042989AE19A95F1F700C0E82FF0E0D1
:200D4000E65CFE4F90819BB99AE19A95F1F700C090913F01823079F030F4882351F0813010
:200D600071F4419A10C0833041F0843041F4289A08C0409A08C0429A06C0439A04C0843073
:200D800010F0987F01C09F5F90933F010895991B79E004C0991F961708F0961B881F7A95E8
:200DA000C9F780950895F894FFCF33275C54781C7B003C1E7B5E78741C50715010006D5F26
:0A0DC00078006D1C540010020804B6
:00000001FF
